:020000040800F2
:1000000000000220A1060008E5060008E506000839
:10001000E5060008E5060008E50600080000000007
:10002000000000000000000000000000E5060008DD
:10003000E506000800000000E5060008AD0700081E
:10004000E5060008E5060008E5060008E5060008E4
:10005000E5060008E5060008E5060008E5060008D4
:10006000E5060008E5060008E5060008E5060008C4
:10007000E5060008E5060008E5060008E5060008B4
:10008000E5060008E5060008E5060008E5060008A4
:10009000E5060008E5060008E5060008E506000894
:1000A000E5060008E5060008E5060008E506000884
:1000B000E5060008E5060008E5060008E506000874
:1000C000E5060008E5060008E5060008E506000864
:1000D000E5060008E5060008E5060008E506000854
:1000E000E5060008E5060008E5060008E506000844
:1000F000E5060008E5060008E5060008E506000834
:10010000E5060008E5060008E5060008E506000823
:10011000E5060008E5060008E5060008E506000813
:10012000E5060008E5060008E5060008E506000803
:10013000E5060008E5060008E5060008E5060008F3
:10014000E5060008E5060008E5060008E5060008E3
:10015000E5060008E5060008E5060008E5060008D3
:10016000E5060008E5060008E5060008E5060008C3
:10017000E5060008E5060008E5060008E5060008B3
:08018000E5060008E506000891
:1001880010B5054C237833B9044B13B10448AFF3C9
:1001980000800123237010BD4408002000000000E7
:1001A800F4110008084B10B51BB108480849AFF313
:1001B80000800848036803B910BD074B002BFBD02B
:1001C800BDE81040184700BF00000000F411000807
:1001D80048080020440800200000000080B500AF57
:1001E800154A154BD3F8883043F47003C2F88830A9
:1001F800124A124B1B6843F0010313600F4B002295
:100208009A600E4A0D4B1B6823F0847323F48033E5
:1002180013600A4B0A4A5A60084A084B1B6823F4C1
:1002280080231360054B0022DA6000F00BF8024BC4
:100238004FF000629A6080BD00ED00E00038024097
:100248001030002480B483B000AF00237B6000230B
:100258003B60354A344B1B6843F480331360324BA0
:100268001B6803F400333B607B6801337B603B68A9
:10027800002B03D17B68B3F5A04FF0D12A4B1B6844
:1002880003F40033002B02D001233B6001E000237C
:100298003B603B68012B42D1234A234B1B6C43F044
:1002A80080531364214A214B1B6843F44043136075
:1002B8001D4A1D4B9B6893601B4A1B4B9B6843F46C
:1002C80000439360184A184B9B6843F4A05393600B
:1002D800154B174A5A60144A134B1B6843F0807336
:1002E800136000BF104B1B6803F00073002BF9D09C
:1002F800104B40F205621A600B4A0B4B9B6823F0C7
:1003080003039360084A084B9B6843F00203936019
:1003180000BF054B9B6803F00C03082BF9D10C3781
:10032800BD465DF8047B704700380240007000400D
:1003380008544007003C024080B485B000AF7860A4
:100348000B4B1B68002B02D1094B0A4A1A60084B59
:100358001B68FB60064B1A687B681344044A1360E9
:10036800FB6818461437BD465DF8047B704700BF2C
:1003780060080020A008002080B483B000AF786037
:1003880039607B683A681A647B6818460C37BD4642
:100398005DF8047B704700BF80B485B000AFF8609B
:1003A8000B467A60FB72FA7AFB68796843F8221088
:1003B8001437BD465DF8047B704700BF80B483B036
:1003C80000AF78607B681B6C18460C37BD465DF83B
:1003D800047B704780B582B000AF786039607B6875
:1003E8003A681A603868FFF7E9FF02467B685A6086
:1003F8007B6818460837BD4680BD00BF80B483B00F
:1004080000AF78600B46FB70FB78012202FA03F319
:100418009AB27B685A810C37BD465DF8047B7047F9
:1004280080B582B000AF78607B685A687B685B896A
:1004380010461946012200F055FA0837BD4680BD1E
:1004480080B582B000AF78607B685A687B685B894A
:1004580010461946002200F045FA0837BD4680BD0F
:1004680080B400AF08231846BD465DF8047B70478A
:1004780080B485B000AF78600A4B1A687B68134473
:10048800FB6000BF074B1A68FB689A4234BF012320
:100498000023DBB2002BF5D11437BD465DF8047B91
:1004A800704700BF6408002080B596B000AF786040
:1004B80007F10803184600F02BF807F1080318465F
:1004C8000D2100F03FF803461846FFF7A9FF4FF447
:1004D8007A70FFF7CDFF07F1080318460D2100F0E9
:1004E80031F803461846FFF7ABFF4FF47A70FFF771
:1004F800BFFFE2E780B582B000AF00F03DF93B1DD9
:100508001846FFF7D1FF002318460837BD4680BDBF
:1005180090B583B000AF78607C68786800F02AF8FE
:10052800034620461946FFF727FF7B6803F144027C
:100538007B681046194600F02FF87B6818460C3780
:10054800BD4690BD80B582B000AF78600B46FB70A9
:10055800FA787B6853F82220FB7810461946FFF793
:100568004DFFFA787B6853F8223018460837BD46A5
:1005780080BD00BF80B582B000AF7860FFF770FF24
:1005880003461846012100F0C5F9024B1846083702
:10059800BD4680BD000C024080B586B002AF7860D1
:1005A80039607B6818463968FFF714FF0023FB6041
:1005B80007F10C03184600F00FF8FB689AB2002305
:1005C8000093786811460222012300F015F87B6831
:1005D80018461037BD4680BD80B483B000AF786040
:1005E8007B681B6843F400527B681A600C37BD4671
:1005F8005DF8047B704700BF80B586B000AF7860B7
:10060800084611461A4603467B800B467B70134604
:100618003B707B687A881A817B787B7401233B74F2
:100628003B78012B14BF01230023DBB2BB7497F87E
:100638002030002B07D097F82030012B01D101235F
:1006480002E0022300E00023FB747B88FB607B68E8
:100658005A6807F10C031046194600F0B5F8002354
:10066800FB7513E07A88FB7D42FA03F303F001037C
:10067800002B08D07B6819687B68FA7D084611460C
:100688001A46FFF789FEFB7D0133FB75FB7D0F2BB7
:10069800E8D91837BD4680BD002103E00A4B5B58F6
:1006A8004350043109480A4B42189A42F6D3094A82
:1006B80002E0002342F8043B074B9A42F9D3FFF7C4
:1006C8008DFDFFF717FF7047181200080000002083
:1006D8004408002044080020A0080020FEE700008D
:1006E80080B483B000AF03463960FB7197F90730D7
:1006F800002B0BDA0D49FB7903F00F03043B3A6832
:10070800D2B21201D2B20B441A7609E0084997F91D
:1007180007303A68D2B21201D2B20B4483F80023F0
:100728000C37BD465DF8047B704700BF00ED00E064
:1007380000E100E080B582B000AF78607B68013BE3
:10074800B3F1807F01D301230FE00A4B7A68013AA5
:100758005A604FF0FF300F21FFF7C2FF054B002210
:100768009A60044B07221A60002318460837BD46D2
:1007780080BD00BF10E000E080B500AF064B00224E
:100788001A60064B1A68064BA3FB02139B0918460E
:10079800FFF7D0FF80BD00BF6408002000000020E4
:1007A800D34D6210684620F007018D4681B400AF32
:1007B800044B1B685A1C034B1A60BD4681BC854616
:1007C800704700BF6408002080B487B000AF78602D
:1007D800396000237B6100233B610023FB60002319
:1007E8007B6176E07B69012202FA03F33B613B6897
:1007F8001A683B691340FB60FA683B699A4265D105
:100808007B681A687B695B00032101FA03F3DB4309
:100818001A407B681A607B681A683B681B7919461E
:100828007B695B0001FA03F31A437B681A603B6833
:100838001B79012B03D03B681B79022B2ED17B68D7
:100848009A687B695B00032101FA03F3DB431A40D2
:100858007B689A607B689A683B685B7919467B6914
:100868005B0001FA03F31A437B689A607B685A6855
:100878007B699BB2012101FA03F3DB431A407B68D1
:100888005A607B685A683B689B7919467B699BB2BA
:1008980001FA03F39BB21A437B685A607B68DA68F3
:1008A8007B699BB25B00032101FA03F3DB431A4027
:1008B8007B68DA607B68DA683B68DB7919467B69B4
:1008C8005B0001FA03F31A437B68DA607B69013342
:1008D8007B617B690F2B85D91C37BD465DF8047B8E
:1008E800704700BF80B483B000AF786013460A46F3
:1008F8007A807B707B78002B03D07B687A881A8398
:1009080002E07B687A885A830C37BD465DF8047B21
:10091800704700BF80B483B000AF78600B46FB70AF
:10092800FB78002B06D0094B084A116B7A680A43FA
:100938001A6306E0054B054A116B7A68D2430A40F0
:100948001A630C37BD465DF8047B704700380240D7
:10095800024B0146186800F003B800BF30040020BD
:100968002DE9F04F01F10B05162D83B0064627D966
:1009780035F0070500F1B680A94200F2B38000F017
:100988007DFAB5F5FC7F22D2C24FE80807EBC00319
:10099800DC689C4200F0C9816368E168A56823F0BF
:1009A8000303234430465A68E96042F001028D602F
:1009B8005A6000F065FA0834204603B0BDE8F08FAD
:1009C800102900F28F8000F059FA1025DCE7680A38
:1009D80000F08F80042800F25481A80938304100C3
:1009E800AC4F07EB8101CC68A14206D10CE0002A8C
:1009F80080F28280E468A14206D0636823F0030392
:100A08005A1B0F2AF3DD01380130A2493C6901F174
:100A1800080E744500F07E81636823F003035A1BB7
:100A28000F2A00F36481002AC1F814E0C1F810E02D
:100A380073DAB3F5007F80F03981DB0801EBC30876
:100A48004FEAA30C4A68D8F80890C4F80890012324
:100A580003FA0CF31343C4F80C804B60C8F8084041
:100A6800C9F80C408210012494409C4262D8234269
:100A780006D120F003006400234200F10400FAD0FC
:100A880007EBC008C4468146DCF80C309C4507D10A
:100A980042E1002980F25281DB689C4500F03C81EC
:100AA8005A6822F00302511B0F29F2DD1C46D3F8C5
:100AB8000CC054F8088F5A1945F0010941F0010596
:100AC800C3F804903046C8F80CC0CCF808807A61A6
:100AD8003A61C2F80CE0C2F808E05560515000F0E5
:100AE800CFF969E700240C232046336003B0BDE842
:100AF800F08F7E213F2073E72344E1685A68A56898
:100B080042F00102E96030468D605A6000F0B8F9A1
:100B18000834204603B0BDE8F08F234430465A68B5
:100B280042F001025A6000F0ABF90834204603B0E5
:100B3800BDE8F08FBC68636823F00308454504D816
:100B4800C5EB08030F2B00F38C80534BDFF858A13B
:100B58001A68DAF8003001332A4404EB080B00F075
:100B6800508102F580520F3222F47F6222F00F0288
:100B780011463046019200F085F9B0F1FF3F8146F9
:100B8800019A00F0F580834500F2EF80434B196825
:100B9800CB451144196000F03D81DAF80000DFF818
:100BA80008E101301BBFCBEB090B5944CEF800908C
:100BB800196019F0070100F00781C1F10800C1F5BB
:100BC8008051814408314A44C2F30B02C2EB010A46
:100BD80051463046019300F055F9431C019B00F043
:100BE8002781C9EB0002524442F001021968C7F894
:100BF80008905144BC42C9F804201960DFF89CA051
:100C080016D0B8F10F0F40F2E2806268A8F10C0329
:100C180023F00703E01802F001024FF0050E1A4313
:100C28000F2B6260C0F804E0C0F808E000F204810D
:100C38001B4BBC681A68914288BF1960194B1A6827
:100C48009142626888BF196022F003029542A2EBC4
:100C5800050301D80F2B04DC304600F011F90024FD
:100C6800AAE6621943F0010345F0010565603046C4
:100C7800BA60536000F004F90834204603B0BDE8B8
:100C8800F08F142869D9542800F29780280B6E3009
:100C98004100A5E6340400207008002074080020F4
:100CA8006C08002068080020400800205A0A042A1E
:100CB80056D9142A00F2A7805B324FEA420C07EBA0
:100CC8008C0CDFF8B481DCF80810614500F08580F1
:100CD8004A6822F00302934202D289688C45F7D110
:100CE800CA687B68E260A1609460CC60BAE6631968
:100CF80042F0010745F00105656030464B610B6124
:100D0800C3F80CE0C3F808E05F609A50083400F0BC
:100D1800B7F851E64B68A5E609F1010919F0030F88
:100D28000CF1080C7FF4B0AE2BE004F10803646901
:100D3800A34208BF02303FF468AE2DE61A441C46B1
:100D48005168DB6854F8085F41F001015160304692
:100D5800EB609D6000F094F82EE65B3041003FE6C2
:100D68009A0938324FEA420CA9E7BC423FF40EAF69
:100D7800BC68626822F0030268E7D8F800809845EA
:100D880077D110F0030FA8F1080300F1FF30F4D178
:100D98007B6823EA04037B6064009C423FF6CAAE8A
:100DA800002C3FF4C7AE234248467FF469AE640086
:100DB800234200F10400FAD062E6B0F5AA7F18D801
:100DC800E80B773041000BE64FF48051FBE6012336
:100DD800C9F804304C46002238E7D8F8043092109D
:100DE8004FF0010C0CFA02F21343C8F804300A461B
:100DF80078E740F25453984217D8A80C7C30410049
:100E0800EEE51032B4E6542A1ED81A0B6E324FEAB9
:100E1800420C54E7CBF30B0000287FF4BEAE4244EB
:100E2800BB6842F001025A6002E7FC217E20D7E548
:100E380001224FF0000AD9E604F10801304600F01B
:100E4800A7F8DAF80010F3E6B2F5AA7F04D8DA0BAF
:100E580077324FEA420C32E740F254518A4204D8C2
:100E68009A0C7C324FEA420C29E74FF0FC0C7E22A8
:100E780025E77B6890E700BF34040020704700BF77
:100E8800704700BF38B5074C002305460846236065
:100E9800FFF752FA431C00D038BD2368002BFBD063
:100EA8002B6038BD9C080020024B13B1024800F0AB
:100EB80005B8704700000000D10E00080146002068
:100EC8000246034600F03CB938B5084B084DED1A08
:100ED800AC1018BFED1805D0013C55F8043D9847F3
:100EE800002CF9D1BDE8384000F086B9141200088A
:100EF80018120008F8B5234F0C460646FFF7BEFF48
:100F0800BB685D6825F00305291B01F6EF7121F424
:100F18007F6121F00F01A1F58054B4F5805F07DBF4
:100F280030460021FFF7AEFFBB682B44984204D03F
:100F38003046FFF7A5FF0020F8BD30466142FFF7B5
:100F4800A1FF01300DD0104BBA6819682D1B45F070
:100F580001053046091B55601960FFF791FF012014
:100F6800F8BD30460021FFF78DFFBA68831A0F2BB2
:100F7800DEDD064C0449246843F00103001B53607E
:100F88000860D5E7340400207408002040080020D9
:100F980000294ED02DE9F0410C468046FFF76EFF40
:100FA80054F8047C624927F00102A4F10805AB1843
:100FB8008E6858689E4220F003005AD0FE07586099
:100FC8000BD454F8087CED1B01F1080EAC6874458D
:100FD8003A4467D0EF68E760BC601C186468E407AF
:100FE8000CD4544F9C68BC4202447CD0D868E06062
:100FF80042F0010384606B60AA5003E042F00103F1
:101008006B60AA50B2F5007F14D2D20801EBC2037C
:1010180048689F68AF609210012404FA02F21043F6
:10102800EB6048609D60FD604046BDE8F041FFF719
:1010380027BF7047530A042B47D8930903F1380494
:10104800600001EB80003A498368834243D05968C5
:1010580021F00301914202D99B689842F7D1DA68DE
:10106800EA60AB6040469560DD60BDE8F041FFF79F
:1010780007BFFF07024407D454F8083CED1A1A4486
:10108800A868EB68C36098602B4B1B6842F00100AE
:101098009A4268608D60C7D3284B40461968FFF7AD
:1010A80029FFC1E719184968C90709D4D9689B6895
:1010B800024442F00100D9608B606860AA50B3E72F
:1010C80042F001036B60AA50AEE7142B14D803F169
:1010D8005B046000B5E74A68A4100120A040024301
:1010E8004A601A46BCE742F001034D610D61EC60AD
:1010F800AC606B60AA5097E7542B04D8130B03F12C
:101108006E0460009DE7B3F5AA7F04D8D30B03F102
:101118007704600095E740F25450834204D8930C5A
:1011280003F17C0460008CE7FC207E2489E700BF83
:10113800340400203C0400203C08002070080020F3
:101148002DE9F047254C2568D5F8484106468846DC
:1011580092469946CCB360681F2818DC431C7EB1C0
:1011680004EB80050121C5F888A0D4F8887101FA3C
:1011780000F21743022EC4F88871C5F808911ED0F2
:101188000230636044F820800020BDE8F087144BEB
:1011980003B34FF4C870FFF7DBFB0446D0B1D5F8B2
:1011A8004831002780E88800C5F8484138460123BF
:1011B800C4F88871C4F88C71002EE1D0D0E7D4F857
:1011C8008C110A43C4F88C21DAE705F5A674C5F832
:1011D8004841C0E74FF0FF30BDE8F087F011000844
:1011E800590900084300000008000020F8B500BFB6
:1011F800F8BC08BC9E467047F8B500BFF8BC08BCF0
:041208009E46704747
:08120C00B10E0008AD0100085D
:041214008901000844
:10121800007A030A0000000000000000F402002029
:101228005C030020C4030020000000000000000050
:1012380000000000000000000000000000000000A6
:10124800000000000000000000000000EC11000891
:101258000000000000000000000000000000000086
:101268000000000000000000000000000000000076
:101278000000000000000000000000000000000066
:101288000000000000000000000000000000000056
:101298000000000000000000000000000000000046
:1012A8000000000000000000000000000000000036
:1012B8000000000000000000000000000000000026
:1012C80001000000000000000E33CDAB34126DE6C3
:1012D800ECDE05000B00000000000000000000002C
:1012E80000000000000000000000000000000000F6
:1012F80000000000000000000000000000000000E6
:1013080000000000000000000000000000000000D5
:1013180000000000000000000000000000000000C5
:101648000800002000000000000000003404002012
:10165800340400203C0400203C0400204404002002
:10166800440400204C0400204C04002054040020B2
:10167800540400205C0400205C0400206404002062
:10168800640400206C0400206C0400207404002012
:10169800740400207C0400207C04002084040020C2
:1016A800840400208C0400208C0400209404002072
:1016B800940400209C0400209C040020A404002022
:1016C800A4040020AC040020AC040020B4040020D2
:1016D800B4040020BC040020BC040020C404002082
:1016E800C4040020CC040020CC040020D404002032
:1016F800D4040020DC040020DC040020E4040020E2
:10170800E4040020EC040020EC040020F404002091
:10171800F4040020FC040020FC0400200405002040
:10172800040500200C0500200C05002014050020ED
:10173800140500201C0500201C050020240500209D
:10174800240500202C0500202C050020340500204D
:10175800340500203C0500203C05002044050020FD
:10176800440500204C0500204C05002054050020AD
:10177800540500205C0500205C050020640500205D
:10178800640500206C0500206C050020740500200D
:10179800740500207C0500207C05002084050020BD
:1017A800840500208C0500208C050020940500206D
:1017B800940500209C0500209C050020A40500201D
:1017C800A4050020AC050020AC050020B4050020CD
:1017D800B4050020BC050020BC050020C40500207D
:1017E800C4050020CC050020CC050020D40500202D
:1017F800D4050020DC050020DC050020E4050020DD
:10180800E4050020EC050020EC050020F40500208C
:10181800F4050020FC050020FC050020040600203B
:10182800040600200C0600200C06002014060020E8
:10183800140600201C0600201C0600202406002098
:10184800240600202C0600202C0600203406002048
:10185800340600203C0600203C06002044060020F8
:10186800440600204C0600204C06002054060020A8
:10187800540600205C0600205C0600206406002058
:10188800640600206C0600206C0600207406002008
:10189800740600207C0600207C06002084060020B8
:1018A800840600208C0600208C0600209406002068
:1018B800940600209C0600209C060020A406002018
:1018C800A4060020AC060020AC060020B4060020C8
:1018D800B4060020BC060020BC060020C406002078
:1018E800C4060020CC060020CC060020D406002028
:1018F800D4060020DC060020DC060020E4060020D8
:10190800E4060020EC060020EC060020F406002087
:10191800F4060020FC060020FC0600200407002036
:10192800040700200C0700200C07002014070020E3
:10193800140700201C0700201C0700202407002093
:10194800240700202C0700202C0700203407002043
:10195800340700203C0700203C07002044070020F3
:10196800440700204C0700204C07002054070020A3
:10197800540700205C0700205C0700206407002053
:10198800640700206C0700206C0700207407002003
:10199800740700207C0700207C07002084070020B3
:1019A800840700208C0700208C0700209407002063
:1019B800940700209C0700209C070020A407002013
:1019C800A4070020AC070020AC070020B4070020C3
:1019D800B4070020BC070020BC070020C407002073
:1019E800C4070020CC070020CC070020D407002023
:1019F800D4070020DC070020DC070020E4070020D3
:101A0800E4070020EC070020EC070020F407002082
:101A1800F4070020FC070020FC0700200408002031
:101A2800040800200C0800200C08002014080020DE
:101A3800140800201C0800201C080020240800208E
:101A4800240800202C0800202C0800200000020098
:041A5800FFFFFFFF8E
:04000005080006A148
:00000001FF
